{
  "contractName": "Bidder",
  "abi": [
    {
      "inputs": [],
      "name": "bidAmount",
      "outputs": [
        {
          "internalType": "uint256",
          "name": "",
          "type": "uint256"
        }
      ],
      "stateMutability": "view",
      "type": "function"
    },
    {
      "inputs": [],
      "name": "eligible",
      "outputs": [
        {
          "internalType": "bool",
          "name": "",
          "type": "bool"
        }
      ],
      "stateMutability": "view",
      "type": "function"
    },
    {
      "inputs": [],
      "name": "name",
      "outputs": [
        {
          "internalType": "string",
          "name": "",
          "type": "string"
        }
      ],
      "stateMutability": "view",
      "type": "function"
    },
    {
      "inputs": [
        {
          "internalType": "string",
          "name": "_name",
          "type": "string"
        }
      ],
      "name": "setName",
      "outputs": [],
      "stateMutability": "nonpayable",
      "type": "function"
    },
    {
      "inputs": [
        {
          "internalType": "uint256",
          "name": "_bidAmount",
          "type": "uint256"
        }
      ],
      "name": "setBidAmount",
      "outputs": [],
      "stateMutability": "nonpayable",
      "type": "function"
    },
    {
      "inputs": [],
      "name": "determinEligibility",
      "outputs": [],
      "stateMutability": "nonpayable",
      "type": "function"
    }
  ],
  "bytecode": "0x6080604052614e2060015534801561001657600080fd5b50610613806100266000396000f3fe608060405234801561001057600080fd5b50600436106100625760003560e01c806306fdde03146100675780639554d3f514610085578063aec2393b146100a1578063c47f0027146100bf578063d832d92f146100db578063ffbf9b45146100f9575b600080fd5b61006f610103565b60405161007c9190610413565b60405180910390f35b61009f600480360381019061009a9190610378565b610191565b005b6100a961019b565b6040516100b69190610435565b60405180910390f35b6100d960048036038101906100d49190610337565b6101a1565b005b6100e36101bb565b6040516100f091906103f8565b60405180910390f35b6101016101ce565b005b6000805461011090610525565b80601f016020809104026020016040519081016040528092919081815260200182805461013c90610525565b80156101895780601f1061015e57610100808354040283529160200191610189565b820191906000526020600020905b81548152906001019060200180831161016c57829003601f168201915b505050505081565b8060018190555050565b60015481565b80600090805190602001906101b7929190610217565b5050565b600260009054906101000a900460ff1681565b6103e8600154106101f9576001600260006101000a81548160ff021916908315150217905550610215565b6000600260006101000a81548160ff0219169083151502179055505b565b82805461022390610525565b90600052602060002090601f016020900481019282610245576000855561028c565b82601f1061025e57805160ff191683800117855561028c565b8280016001018555821561028c579182015b8281111561028b578251825591602001919060010190610270565b5b509050610299919061029d565b5090565b5b808211156102b657600081600090555060010161029e565b5090565b60006102cd6102c884610481565b610450565b9050828152602081018484840111156102e557600080fd5b6102f08482856104e3565b509392505050565b600082601f83011261030957600080fd5b81356103198482602086016102ba565b91505092915050565b600081359050610331816105c6565b92915050565b60006020828403121561034957600080fd5b600082013567ffffffffffffffff81111561036357600080fd5b61036f848285016102f8565b91505092915050565b60006020828403121561038a57600080fd5b600061039884828501610322565b91505092915050565b6103aa816104cd565b82525050565b60006103bb826104b1565b6103c581856104bc565b93506103d58185602086016104f2565b6103de816105b5565b840191505092915050565b6103f2816104d9565b82525050565b600060208201905061040d60008301846103a1565b92915050565b6000602082019050818103600083015261042d81846103b0565b905092915050565b600060208201905061044a60008301846103e9565b92915050565b6000604051905081810181811067ffffffffffffffff8211171561047757610476610586565b5b8060405250919050565b600067ffffffffffffffff82111561049c5761049b610586565b5b601f19601f8301169050602081019050919050565b600081519050919050565b600082825260208201905092915050565b60008115159050919050565b6000819050919050565b82818337600083830152505050565b60005b838110156105105780820151818401526020810190506104f5565b8381111561051f576000848401525b50505050565b6000600282049050600182168061053d57607f821691505b6020821081141561055157610550610557565b5b50919050565b7f4e487b7100000000000000000000000000000000000000000000000000000000600052602260045260246000fd5b7f4e487b7100000000000000000000000000000000000000000000000000000000600052604160045260246000fd5b6000601f19601f8301169050919050565b6105cf816104d9565b81146105da57600080fd5b5056fea264697066735822122008d19956e8db4908d709d17f32ae4bcfff1a1d2f44236bad7932d8c996560ed064736f6c63430008000033",
  "immutableReferences": {},
  "source": "pragma solidity ^0.8.0;\n\ncontract Bidder {\n    string public name;\n    uint256 public bidAmount = 20000;\n    bool public eligible;\n    uint256 constant minBid = 1000;\n\n    function setName(string memory _name) public {\n        name = _name;\n    }\n\n    function setBidAmount(uint256 _bidAmount) public {\n        bidAmount = _bidAmount;\n    }\n\n    function determinEligibility() public {\n        if (bidAmount >= minBid) eligible = true;\n        else eligible = false;\n    }\n}\n",
  "sourcePath": "/home/zaryab/VSCodeProjects/SmartContracts-Solidity/contracts/Bidder.sol",
  "compiler": {
    "name": "solc",
    "version": "0.8.0+commit.c7dfd78e.Emscripten.clang"
  },
  "schemaVersion": "3.4.1",
  "updatedAt": "2021-08-23T06:27:20.054Z",
  "devdoc": {
    "kind": "dev",
    "methods": {},
    "version": 1
  },
  "userdoc": {
    "kind": "user",
    "methods": {},
    "version": 1
  }
}