{
  "contractName": "Coin",
  "abi": [
    {
      "inputs": [],
      "stateMutability": "nonpayable",
      "type": "constructor"
    },
    {
      "anonymous": false,
      "inputs": [
        {
          "indexed": false,
          "internalType": "address",
          "name": "from",
          "type": "address"
        },
        {
          "indexed": false,
          "internalType": "address",
          "name": "to",
          "type": "address"
        },
        {
          "indexed": false,
          "internalType": "uint256",
          "name": "value",
          "type": "uint256"
        }
      ],
      "name": "Sent",
      "type": "event"
    },
    {
      "inputs": [
        {
          "internalType": "address",
          "name": "receiver",
          "type": "address"
        },
        {
          "internalType": "uint256",
          "name": "value",
          "type": "uint256"
        }
      ],
      "name": "mint",
      "outputs": [],
      "stateMutability": "nonpayable",
      "type": "function"
    },
    {
      "inputs": [
        {
          "internalType": "address",
          "name": "receiver",
          "type": "address"
        },
        {
          "internalType": "uint256",
          "name": "value",
          "type": "uint256"
        }
      ],
      "name": "send",
      "outputs": [],
      "stateMutability": "nonpayable",
      "type": "function"
    }
  ],
  "bytecode": "0x608060405234801561001057600080fd5b50336000806101000a81548173ffffffffffffffffffffffffffffffffffffffff021916908373ffffffffffffffffffffffffffffffffffffffff160217905550610472806100606000396000f3fe608060405234801561001057600080fd5b50600436106100365760003560e01c806340c10f191461003b578063d0679d3414610057575b600080fd5b61005560048036038101906100509190610288565b610073565b005b610071600480360381019061006c9190610288565b610126565b005b60008054906101000a900473ffffffffffffffffffffffffffffffffffffffff1673ffffffffffffffffffffffffffffffffffffffff163373ffffffffffffffffffffffffffffffffffffffff16146100cb57610122565b80600160008473ffffffffffffffffffffffffffffffffffffffff1673ffffffffffffffffffffffffffffffffffffffff168152602001908152602001600020600082825461011a9190610319565b925050819055505b5050565b80600160003373ffffffffffffffffffffffffffffffffffffffff1673ffffffffffffffffffffffffffffffffffffffff1681526020019081526020016000205410156101725761025a565b80600160003373ffffffffffffffffffffffffffffffffffffffff1673ffffffffffffffffffffffffffffffffffffffff16815260200190815260200160002060008282546101c1919061036f565b9250508190555080600160008473ffffffffffffffffffffffffffffffffffffffff1673ffffffffffffffffffffffffffffffffffffffff16815260200190815260200160002060008282546102179190610319565b925050819055507f3990db2d31862302a685e8086b5755072a6e2b5b780af1ee81ece35ee3cd3345338383604051610251939291906102e2565b60405180910390a15b5050565b60008135905061026d8161040e565b92915050565b60008135905061028281610425565b92915050565b6000806040838503121561029b57600080fd5b60006102a98582860161025e565b92505060206102ba85828601610273565b9150509250929050565b6102cd816103a3565b82525050565b6102dc816103d5565b82525050565b60006060820190506102f760008301866102c4565b61030460208301856102c4565b61031160408301846102d3565b949350505050565b6000610324826103d5565b915061032f836103d5565b9250827fffffffffffffffffffffffffffffffffffffffffffffffffffffffffffffffff03821115610364576103636103df565b5b828201905092915050565b600061037a826103d5565b9150610385836103d5565b925082821015610398576103976103df565b5b828203905092915050565b60006103ae826103b5565b9050919050565b600073ffffffffffffffffffffffffffffffffffffffff82169050919050565b6000819050919050565b7f4e487b7100000000000000000000000000000000000000000000000000000000600052601160045260246000fd5b610417816103a3565b811461042257600080fd5b50565b61042e816103d5565b811461043957600080fd5b5056fea26469706673582212206372930e0b5cdb3335bbee384e662533ea23dc0d321252ea8f857b46d879e2fc64736f6c63430008000033",
  "immutableReferences": {},
  "source": "pragma solidity ^0.8.0;\n\ncontract Coin {\n    address minter;\n    mapping (address => uint) balances;\n    \n    event Sent(address from, address to, uint value);\n\n    constructor() {\n        minter = msg.sender;\n    }\n\n    function mint(address receiver, uint value) public {\n        if (msg.sender != minter) return;\n        balances[receiver] += value;\n    }\n\n    function send(address receiver, uint value) public {\n        if (balances[msg.sender] < value) return;\n        balances[msg.sender] -= value;\n        balances[receiver] += value;\n        emit Sent(msg.sender, receiver, value);\n    }\n}",
  "sourcePath": "/home/zaryab/VSCodeProjects/SmartContracts-Solidity/contracts/Minter.sol",
  "compiler": {
    "name": "solc",
    "version": "0.8.0+commit.c7dfd78e.Emscripten.clang"
  },
  "schemaVersion": "3.4.1",
  "updatedAt": "2021-08-23T06:27:20.064Z",
  "devdoc": {
    "kind": "dev",
    "methods": {},
    "version": 1
  },
  "userdoc": {
    "kind": "user",
    "methods": {},
    "version": 1
  }
}