{
  "contractName": "GasCont",
  "abi": [
    {
      "inputs": [],
      "name": "gas",
      "outputs": [
        {
          "internalType": "uint256",
          "name": "",
          "type": "uint256"
        }
      ],
      "stateMutability": "view",
      "type": "function"
    },
    {
      "inputs": [],
      "name": "message",
      "outputs": [
        {
          "internalType": "string",
          "name": "",
          "type": "string"
        }
      ],
      "stateMutability": "view",
      "type": "function"
    },
    {
      "inputs": [
        {
          "internalType": "string",
          "name": "_message",
          "type": "string"
        }
      ],
      "name": "setMessage",
      "outputs": [],
      "stateMutability": "nonpayable",
      "type": "function"
    }
  ],
  "bytecode": "0x608060405234801561001057600080fd5b506104c4806100206000396000f3fe608060405234801561001057600080fd5b50600436106100415760003560e01c8063368b8772146100465780636ca7c21614610062578063e21f37ce14610080575b600080fd5b610060600480360381019061005b919061025e565b61009e565b005b61006a6100bf565b6040516100779190610309565b60405180910390f35b6100886100c5565b60405161009591906102e7565b60405180910390f35b80600090805190602001906100b4929190610153565b505a60018190555050565b60015481565b600080546100d2906103ed565b80601f01602080910402602001604051908101604052809291908181526020018280546100fe906103ed565b801561014b5780601f106101205761010080835404028352916020019161014b565b820191906000526020600020905b81548152906001019060200180831161012e57829003601f168201915b505050505081565b82805461015f906103ed565b90600052602060002090601f01602090048101928261018157600085556101c8565b82601f1061019a57805160ff19168380011785556101c8565b828001600101855582156101c8579182015b828111156101c75782518255916020019190600101906101ac565b5b5090506101d591906101d9565b5090565b5b808211156101f25760008160009055506001016101da565b5090565b600061020961020484610355565b610324565b90508281526020810184848401111561022157600080fd5b61022c8482856103ab565b509392505050565b600082601f83011261024557600080fd5b81356102558482602086016101f6565b91505092915050565b60006020828403121561027057600080fd5b600082013567ffffffffffffffff81111561028a57600080fd5b61029684828501610234565b91505092915050565b60006102aa82610385565b6102b48185610390565b93506102c48185602086016103ba565b6102cd8161047d565b840191505092915050565b6102e1816103a1565b82525050565b60006020820190508181036000830152610301818461029f565b905092915050565b600060208201905061031e60008301846102d8565b92915050565b6000604051905081810181811067ffffffffffffffff8211171561034b5761034a61044e565b5b8060405250919050565b600067ffffffffffffffff8211156103705761036f61044e565b5b601f19601f8301169050602081019050919050565b600081519050919050565b600082825260208201905092915050565b6000819050919050565b82818337600083830152505050565b60005b838110156103d85780820151818401526020810190506103bd565b838111156103e7576000848401525b50505050565b6000600282049050600182168061040557607f821691505b602082108114156104195761041861041f565b5b50919050565b7f4e487b7100000000000000000000000000000000000000000000000000000000600052602260045260246000fd5b7f4e487b7100000000000000000000000000000000000000000000000000000000600052604160045260246000fd5b6000601f19601f830116905091905056fea2646970667358221220585000d3bc44fce9f3b97bbd9683dd129152386a043461d8de412e38fa94e23264736f6c63430008000033",
  "immutableReferences": {},
  "source": "pragma solidity ^0.8.0;\n\ncontract GasCont {\n    \n    string public message;\n    uint public gas;\n    \n    // set the message function\n    function setMessage(string memory _message) public {\n        message = _message;\n        gas = gasleft();\n    }\n}",
  "sourcePath": "/home/zaryab/VSCodeProjects/SmartContracts-Solidity/contracts/GasCont.sol",
  "compiler": {
    "name": "solc",
    "version": "0.8.0+commit.c7dfd78e.Emscripten.clang"
  },
  "schemaVersion": "3.4.1",
  "updatedAt": "2021-08-28T06:35:46.683Z",
  "devdoc": {
    "kind": "dev",
    "methods": {},
    "version": 1
  },
  "userdoc": {
    "kind": "user",
    "methods": {},
    "version": 1
  }
}