{
  "contractName": "Lottery",
  "abi": [
    {
      "inputs": [],
      "stateMutability": "nonpayable",
      "type": "constructor"
    },
    {
      "inputs": [],
      "name": "manager",
      "outputs": [
        {
          "internalType": "address",
          "name": "",
          "type": "address"
        }
      ],
      "stateMutability": "view",
      "type": "function"
    },
    {
      "inputs": [
        {
          "internalType": "uint256",
          "name": "",
          "type": "uint256"
        }
      ],
      "name": "players",
      "outputs": [
        {
          "internalType": "address",
          "name": "",
          "type": "address"
        }
      ],
      "stateMutability": "view",
      "type": "function"
    },
    {
      "inputs": [],
      "name": "enter",
      "outputs": [],
      "stateMutability": "payable",
      "type": "function"
    },
    {
      "inputs": [],
      "name": "pickWinner",
      "outputs": [],
      "stateMutability": "nonpayable",
      "type": "function"
    },
    {
      "inputs": [],
      "name": "getPlayers",
      "outputs": [
        {
          "internalType": "address[]",
          "name": "",
          "type": "address[]"
        }
      ],
      "stateMutability": "view",
      "type": "function"
    }
  ],
  "bytecode": "0x608060405234801561001057600080fd5b50336000806101000a81548173ffffffffffffffffffffffffffffffffffffffff021916908373ffffffffffffffffffffffffffffffffffffffff16021790555061089a806100606000396000f3fe60806040526004361061004a5760003560e01c8063481c6a751461004f5780635d495aea1461007a5780638b5b9ccc14610091578063e97dcb62146100bc578063f71d96cb146100c6575b600080fd5b34801561005b57600080fd5b50610064610103565b604051610071919061069f565b60405180910390f35b34801561008657600080fd5b5061008f610127565b005b34801561009d57600080fd5b506100a66102cf565b6040516100b391906106ba565b60405180910390f35b6100c461035d565b005b3480156100d257600080fd5b506100ed60048036038101906100e89190610506565b6103d5565b6040516100fa919061069f565b60405180910390f35b60008054906101000a900473ffffffffffffffffffffffffffffffffffffffff1681565b60008054906101000a900473ffffffffffffffffffffffffffffffffffffffff1673ffffffffffffffffffffffffffffffffffffffff163373ffffffffffffffffffffffffffffffffffffffff161461017f57600080fd5b600060018054905061018f610414565b61019991906107cd565b9050600181815481106101d5577f4e487b7100000000000000000000000000000000000000000000000000000000600052603260045260246000fd5b9060005260206000200160009054906101000a900473ffffffffffffffffffffffffffffffffffffffff1673ffffffffffffffffffffffffffffffffffffffff166108fc479081150290604051600060405180830381858888f19350505050158015610245573d6000803e3d6000fd5b50600067ffffffffffffffff811115610287577f4e487b7100000000000000000000000000000000000000000000000000000000600052604160045260246000fd5b6040519080825280602002602001820160405280156102b55781602001602082028036833780820191505090505b50600190805190602001906102cb92919061044a565b5050565b6060600180548060200260200160405190810160405280929190818152602001828054801561035357602002820191906000526020600020905b8160009054906101000a900473ffffffffffffffffffffffffffffffffffffffff1673ffffffffffffffffffffffffffffffffffffffff1681526020019060010190808311610309575b5050505050905090565b662386f26fc10000341161037057600080fd5b6001339080600181540180825580915050600190039060005260206000200160009091909190916101000a81548173ffffffffffffffffffffffffffffffffffffffff021916908373ffffffffffffffffffffffffffffffffffffffff160217905550565b600181815481106103e557600080fd5b906000526020600020016000915054906101000a900473ffffffffffffffffffffffffffffffffffffffff1681565b60004442600160405160200161042c93929190610666565b6040516020818303038152906040528051906020012060001c905090565b8280548282559060005260206000209081019282156104c3579160200282015b828111156104c25782518260006101000a81548173ffffffffffffffffffffffffffffffffffffffff021916908373ffffffffffffffffffffffffffffffffffffffff1602179055509160200191906001019061046a565b5b5090506104d091906104d4565b5090565b5b808211156104ed5760008160009055506001016104d5565b5090565b6000813590506105008161084d565b92915050565b60006020828403121561051857600080fd5b6000610526848285016104f1565b91505092915050565b600061053b838361055f565b60208301905092915050565b6000610553838361057d565b60208301905092915050565b6105688161076d565b82525050565b6105778161076d565b82525050565b6105868161076d565b82525050565b600061059782610701565b6105a18185610731565b93506105ac836106dc565b8060005b838110156105dd5781516105c4888261052f565b97506105cf83610717565b9250506001810190506105b0565b5085935050505092915050565b60006105f58261070c565b6105ff8185610742565b935061060a836106ec565b8060005b838110156106425761061f8261082d565b6106298882610547565b975061063483610724565b92505060018101905061060e565b5085935050505092915050565b61066061065b8261079f565b6107c3565b82525050565b6000610672828661064f565b602082019150610682828561064f565b60208201915061069282846105ea565b9150819050949350505050565b60006020820190506106b4600083018461056e565b92915050565b600060208201905081810360008301526106d4818461058c565b905092915050565b6000819050602082019050919050565b60008190508160005260206000209050919050565b600081519050919050565b600081549050919050565b6000602082019050919050565b6000600182019050919050565b600082825260208201905092915050565b600081905092915050565b600073ffffffffffffffffffffffffffffffffffffffff82169050919050565b60006107788261077f565b9050919050565b600073ffffffffffffffffffffffffffffffffffffffff82169050919050565b6000819050919050565b60006107bc6107b783610840565b61074d565b9050919050565b6000819050919050565b60006107d88261079f565b91506107e38361079f565b9250826107f3576107f26107fe565b5b828206905092915050565b7f4e487b7100000000000000000000000000000000000000000000000000000000600052601260045260246000fd5b600061083982546107a9565b9050919050565b60008160001c9050919050565b6108568161079f565b811461086157600080fd5b5056fea2646970667358221220b4fe6dd30532d18d96a1e8a85e9ab4dd71e01e09bd3b28b9f0717df771cf817764736f6c63430008000033",
  "immutableReferences": {},
  "source": "pragma solidity ^0.8.0;\n\ncontract Lottery {\n    address public manager;\n    address[] public players;\n\n    constructor() {\n        manager = msg.sender;\n    }\n\n    function enter() public payable {\n        require(msg.value > .01 ether);\n        players.push(msg.sender);\n    }\n\n    function random() private view returns (uint256) {\n        return\n            uint256(\n                keccak256(\n                    abi.encodePacked(block.difficulty, block.timestamp, players)\n                )\n            );\n    }\n\n    function pickWinner() public restricted {\n        uint256 index = random() % players.length;\n        payable(players[index]).transfer(address(this).balance);\n        players = new address[](0);\n    }\n\n    modifier restricted() {\n        require(msg.sender == manager);\n        _;\n    }\n\n    function getPlayers() public view returns (address[] memory) {\n        return players;\n    }\n}\n",
  "sourcePath": "/home/zaryab/VSCodeProjects/SmartContracts-Solidity/contracts/Lottery.sol",
  "compiler": {
    "name": "solc",
    "version": "0.8.0+commit.c7dfd78e.Emscripten.clang"
  },
  "schemaVersion": "3.4.1",
  "updatedAt": "2021-08-30T08:47:08.773Z",
  "devdoc": {
    "kind": "dev",
    "methods": {},
    "version": 1
  },
  "userdoc": {
    "kind": "user",
    "methods": {},
    "version": 1
  }
}